{
  "_format": "hh-sol-artifact-1",
  "contractName": "Donation",
  "sourceName": "contracts/Donation.sol",
  "abi": [
    {
      "inputs": [],
      "stateMutability": "nonpayable",
      "type": "constructor"
    },
    {
      "anonymous": false,
      "inputs": [
        {
          "indexed": true,
          "internalType": "address",
          "name": "donor",
          "type": "address"
        },
        {
          "indexed": true,
          "internalType": "address",
          "name": "recipient",
          "type": "address"
        },
        {
          "indexed": false,
          "internalType": "uint256",
          "name": "amount",
          "type": "uint256"
        },
        {
          "indexed": false,
          "internalType": "string",
          "name": "message",
          "type": "string"
        },
        {
          "indexed": false,
          "internalType": "uint256",
          "name": "timestamp",
          "type": "uint256"
        }
      ],
      "name": "DonationSent",
      "type": "event"
    },
    {
      "inputs": [
        {
          "internalType": "address",
          "name": "_recipient",
          "type": "address"
        },
        {
          "internalType": "string",
          "name": "_message",
          "type": "string"
        }
      ],
      "name": "donate",
      "outputs": [],
      "stateMutability": "payable",
      "type": "function"
    },
    {
      "inputs": [
        {
          "internalType": "uint256",
          "name": "",
          "type": "uint256"
        }
      ],
      "name": "donations",
      "outputs": [
        {
          "internalType": "address",
          "name": "donor",
          "type": "address"
        },
        {
          "internalType": "address",
          "name": "recipient",
          "type": "address"
        },
        {
          "internalType": "uint256",
          "name": "amount",
          "type": "uint256"
        },
        {
          "internalType": "uint256",
          "name": "timestamp",
          "type": "uint256"
        },
        {
          "internalType": "string",
          "name": "message",
          "type": "string"
        }
      ],
      "stateMutability": "view",
      "type": "function"
    },
    {
      "inputs": [],
      "name": "getAllDonations",
      "outputs": [
        {
          "components": [
            {
              "internalType": "address",
              "name": "donor",
              "type": "address"
            },
            {
              "internalType": "address",
              "name": "recipient",
              "type": "address"
            },
            {
              "internalType": "uint256",
              "name": "amount",
              "type": "uint256"
            },
            {
              "internalType": "uint256",
              "name": "timestamp",
              "type": "uint256"
            },
            {
              "internalType": "string",
              "name": "message",
              "type": "string"
            }
          ],
          "internalType": "struct Donation.DonationInfo[]",
          "name": "",
          "type": "tuple[]"
        }
      ],
      "stateMutability": "view",
      "type": "function"
    },
    {
      "inputs": [
        {
          "internalType": "uint256",
          "name": "_index",
          "type": "uint256"
        }
      ],
      "name": "getDonation",
      "outputs": [
        {
          "internalType": "address",
          "name": "donor",
          "type": "address"
        },
        {
          "internalType": "address",
          "name": "recipient",
          "type": "address"
        },
        {
          "internalType": "uint256",
          "name": "amount",
          "type": "uint256"
        },
        {
          "internalType": "uint256",
          "name": "timestamp",
          "type": "uint256"
        },
        {
          "internalType": "string",
          "name": "message",
          "type": "string"
        }
      ],
      "stateMutability": "view",
      "type": "function"
    },
    {
      "inputs": [],
      "name": "getDonationsCount",
      "outputs": [
        {
          "internalType": "uint256",
          "name": "",
          "type": "uint256"
        }
      ],
      "stateMutability": "view",
      "type": "function"
    },
    {
      "inputs": [],
      "name": "owner",
      "outputs": [
        {
          "internalType": "address",
          "name": "",
          "type": "address"
        }
      ],
      "stateMutability": "view",
      "type": "function"
    },
    {
      "inputs": [
        {
          "internalType": "address",
          "name": "",
          "type": "address"
        }
      ],
      "name": "totalDonationsReceived",
      "outputs": [
        {
          "internalType": "uint256",
          "name": "",
          "type": "uint256"
        }
      ],
      "stateMutability": "view",
      "type": "function"
    }
  ],
  "bytecode": "0x608060405234801561001057600080fd5b50336000806101000a81548173ffffffffffffffffffffffffffffffffffffffff021916908373ffffffffffffffffffffffffffffffffffffffff16021790555061169f806100606000396000f3fe6080604052600436106100705760003560e01c8063aae5aa9e1161004e578063aae5aa9e146100e7578063c93527d814610124578063ef07a81f1461014f578063f8626af81461019057610070565b806338a59a0714610075578063429c14d7146100a05780638da5cb5b146100bc575b600080fd5b34801561008157600080fd5b5061008a6101d1565b6040516100979190610cc2565b60405180910390f35b6100ba60048036038101906100b59190610e59565b610382565b005b3480156100c857600080fd5b506100d161074a565b6040516100de9190610ec4565b60405180910390f35b3480156100f357600080fd5b5061010e60048036038101906101099190610edf565b61076e565b60405161011b9190610f1b565b60405180910390f35b34801561013057600080fd5b50610139610786565b6040516101469190610f1b565b60405180910390f35b34801561015b57600080fd5b5061017660048036038101906101719190610f62565b610793565b604051610187959493929190610fd9565b60405180910390f35b34801561019c57600080fd5b506101b760048036038101906101b29190610f62565b610992565b6040516101c8959493929190610fd9565b60405180910390f35b60606001805480602002602001604051908101604052809291908181526020016000905b8282101561037957838290600052602060002090600502016040518060a00160405290816000820160009054906101000a900473ffffffffffffffffffffffffffffffffffffffff1673ffffffffffffffffffffffffffffffffffffffff1673ffffffffffffffffffffffffffffffffffffffff1681526020016001820160009054906101000a900473ffffffffffffffffffffffffffffffffffffffff1673ffffffffffffffffffffffffffffffffffffffff1673ffffffffffffffffffffffffffffffffffffffff16815260200160028201548152602001600382015481526020016004820180546102e890611062565b80601f016020809104026020016040519081016040528092919081815260200182805461031490611062565b80156103615780601f1061033657610100808354040283529160200191610361565b820191906000526020600020905b81548152906001019060200180831161034457829003601f168201915b505050505081525050815260200190600101906101f5565b50505050905090565b600034116103c5576040517f08c379a00000000000000000000000000000000000000000000000000000000081526004016103bc90611105565b60405180910390fd5b600073ffffffffffffffffffffffffffffffffffffffff168273ffffffffffffffffffffffffffffffffffffffff1603610434576040517f08c379a000000000000000000000000000000000000000000000000000000000815260040161042b90611171565b60405180910390fd5b3373ffffffffffffffffffffffffffffffffffffffff168273ffffffffffffffffffffffffffffffffffffffff16036104a2576040517f08c379a0000000000000000000000000000000000000000000000000000000008152600401610499906111dd565b60405180910390fd5b34600260008473ffffffffffffffffffffffffffffffffffffffff1673ffffffffffffffffffffffffffffffffffffffff16815260200190815260200160002060008282546104f1919061122c565b9250508190555060016040518060a001604052803373ffffffffffffffffffffffffffffffffffffffff1681526020018473ffffffffffffffffffffffffffffffffffffffff16815260200134815260200142815260200183815250908060018154018082558091505060019003906000526020600020906005020160009091909190915060008201518160000160006101000a81548173ffffffffffffffffffffffffffffffffffffffff021916908373ffffffffffffffffffffffffffffffffffffffff16021790555060208201518160010160006101000a81548173ffffffffffffffffffffffffffffffffffffffff021916908373ffffffffffffffffffffffffffffffffffffffff1602179055506040820151816002015560608201518160030155608082015181600401908161062d919061140c565b50505060008273ffffffffffffffffffffffffffffffffffffffff16346040516106569061150f565b60006040518083038185875af1925050503d8060008114610693576040519150601f19603f3d011682016040523d82523d6000602084013e610698565b606091505b50509050806106dc576040517f08c379a00000000000000000000000000000000000000000000000000000000081526004016106d390611570565b60405180910390fd5b8273ffffffffffffffffffffffffffffffffffffffff163373ffffffffffffffffffffffffffffffffffffffff167f77858ebe8f1250cab23b53b860378a5893f83aeab3af76362980c8df8cc5ea4634854260405161073d93929190611590565b60405180910390a3505050565b60008054906101000a900473ffffffffffffffffffffffffffffffffffffffff1681565b60026020528060005260406000206000915090505481565b6000600180549050905090565b600080600080606060018054905086106107e2576040517f08c379a00000000000000000000000000000000000000000000000000000000081526004016107d99061161a565b60405180910390fd5b6000600187815481106107f8576107f761163a565b5b90600052602060002090600502016040518060a00160405290816000820160009054906101000a900473ffffffffffffffffffffffffffffffffffffffff1673ffffffffffffffffffffffffffffffffffffffff1673ffffffffffffffffffffffffffffffffffffffff1681526020016001820160009054906101000a900473ffffffffffffffffffffffffffffffffffffffff1673ffffffffffffffffffffffffffffffffffffffff1673ffffffffffffffffffffffffffffffffffffffff16815260200160028201548152602001600382015481526020016004820180546108e190611062565b80601f016020809104026020016040519081016040528092919081815260200182805461090d90611062565b801561095a5780601f1061092f5761010080835404028352916020019161095a565b820191906000526020600020905b81548152906001019060200180831161093d57829003601f168201915b505050505081525050905080600001518160200151826040015183606001518460800151955095509550955095505091939590929450565b600181815481106109a257600080fd5b90600052602060002090600502016000915090508060000160009054906101000a900473ffffffffffffffffffffffffffffffffffffffff16908060010160009054906101000a900473ffffffffffffffffffffffffffffffffffffffff1690806002015490806003015490806004018054610a1d90611062565b80601f0160208091040260200160405190810160405280929190818152602001828054610a4990611062565b8015610a965780601f10610a6b57610100808354040283529160200191610a96565b820191906000526020600020905b815481529060010190602001808311610a7957829003601f168201915b5050505050905085565b600081519050919050565b600082825260208201905092915050565b6000819050602082019050919050565b600073ffffffffffffffffffffffffffffffffffffffff82169050919050565b6000610af782610acc565b9050919050565b610b0781610aec565b82525050565b6000819050919050565b610b2081610b0d565b82525050565b600081519050919050565b600082825260208201905092915050565b60005b83811015610b60578082015181840152602081019050610b45565b60008484015250505050565b6000601f19601f8301169050919050565b6000610b8882610b26565b610b928185610b31565b9350610ba2818560208601610b42565b610bab81610b6c565b840191505092915050565b600060a083016000830151610bce6000860182610afe565b506020830151610be16020860182610afe565b506040830151610bf46040860182610b17565b506060830151610c076060860182610b17565b5060808301518482036080860152610c1f8282610b7d565b9150508091505092915050565b6000610c388383610bb6565b905092915050565b6000602082019050919050565b6000610c5882610aa0565b610c628185610aab565b935083602082028501610c7485610abc565b8060005b85811015610cb05784840389528151610c918582610c2c565b9450610c9c83610c40565b925060208a01995050600181019050610c78565b50829750879550505050505092915050565b60006020820190508181036000830152610cdc8184610c4d565b905092915050565b6000604051905090565b600080fd5b600080fd5b610d0181610aec565b8114610d0c57600080fd5b50565b600081359050610d1e81610cf8565b92915050565b600080fd5b600080fd5b7f4e487b7100000000000000000000000000000000000000000000000000000000600052604160045260246000fd5b610d6682610b6c565b810181811067ffffffffffffffff82111715610d8557610d84610d2e565b5b80604052505050565b6000610d98610ce4565b9050610da48282610d5d565b919050565b600067ffffffffffffffff821115610dc457610dc3610d2e565b5b610dcd82610b6c565b9050602081019050919050565b82818337600083830152505050565b6000610dfc610df784610da9565b610d8e565b905082815260208101848484011115610e1857610e17610d29565b5b610e23848285610dda565b509392505050565b600082601f830112610e4057610e3f610d24565b5b8135610e50848260208601610de9565b91505092915050565b60008060408385031215610e7057610e6f610cee565b5b6000610e7e85828601610d0f565b925050602083013567ffffffffffffffff811115610e9f57610e9e610cf3565b5b610eab85828601610e2b565b9150509250929050565b610ebe81610aec565b82525050565b6000602082019050610ed96000830184610eb5565b92915050565b600060208284031215610ef557610ef4610cee565b5b6000610f0384828501610d0f565b91505092915050565b610f1581610b0d565b82525050565b6000602082019050610f306000830184610f0c565b92915050565b610f3f81610b0d565b8114610f4a57600080fd5b50565b600081359050610f5c81610f36565b92915050565b600060208284031215610f7857610f77610cee565b5b6000610f8684828501610f4d565b91505092915050565b600082825260208201905092915050565b6000610fab82610b26565b610fb58185610f8f565b9350610fc5818560208601610b42565b610fce81610b6c565b840191505092915050565b600060a082019050610fee6000830188610eb5565b610ffb6020830187610eb5565b6110086040830186610f0c565b6110156060830185610f0c565b81810360808301526110278184610fa0565b90509695505050505050565b7f4e487b7100000000000000000000000000000000000000000000000000000000600052602260045260246000fd5b6000600282049050600182168061107a57607f821691505b60208210810361108d5761108c611033565b5b50919050565b7f446f6e6174696f6e20616d6f756e74206d75737420626520677265617465722060008201527f7468616e20300000000000000000000000000000000000000000000000000000602082015250565b60006110ef602683610f8f565b91506110fa82611093565b604082019050919050565b6000602082019050818103600083015261111e816110e2565b9050919050565b7f496e76616c696420726563697069656e74206164647265737300000000000000600082015250565b600061115b601983610f8f565b915061116682611125565b602082019050919050565b6000602082019050818103600083015261118a8161114e565b9050919050565b7f43616e6e6f7420646f6e61746520746f20796f757273656c6600000000000000600082015250565b60006111c7601983610f8f565b91506111d282611191565b602082019050919050565b600060208201905081810360008301526111f6816111ba565b9050919050565b7f4e487b7100000000000000000000000000000000000000000000000000000000600052601160045260246000fd5b600061123782610b0d565b915061124283610b0d565b925082820190508082111561125a576112596111fd565b5b92915050565b60008190508160005260206000209050919050565b60006020601f8301049050919050565b600082821b905092915050565b6000600883026112c27fffffffffffffffffffffffffffffffffffffffffffffffffffffffffffffffff82611285565b6112cc8683611285565b95508019841693508086168417925050509392505050565b6000819050919050565b60006113096113046112ff84610b0d565b6112e4565b610b0d565b9050919050565b6000819050919050565b611323836112ee565b61133761132f82611310565b848454611292565b825550505050565b600090565b61134c61133f565b61135781848461131a565b505050565b5b8181101561137b57611370600082611344565b60018101905061135d565b5050565b601f8211156113c05761139181611260565b61139a84611275565b810160208510156113a9578190505b6113bd6113b585611275565b83018261135c565b50505b505050565b600082821c905092915050565b60006113e3600019846008026113c5565b1980831691505092915050565b60006113fc83836113d2565b9150826002028217905092915050565b61141582610b26565b67ffffffffffffffff81111561142e5761142d610d2e565b5b6114388254611062565b61144382828561137f565b600060209050601f8311600181146114765760008415611464578287015190505b61146e85826113f0565b8655506114d6565b601f19841661148486611260565b60005b828110156114ac57848901518255600182019150602085019450602081019050611487565b868310156114c957848901516114c5601f8916826113d2565b8355505b6001600288020188555050505b505050505050565b600081905092915050565b50565b60006114f96000836114de565b9150611504826114e9565b600082019050919050565b600061151a826114ec565b9150819050919050565b7f5472616e73666572206661696c65640000000000000000000000000000000000600082015250565b600061155a600f83610f8f565b915061156582611524565b602082019050919050565b600060208201905081810360008301526115898161154d565b9050919050565b60006060820190506115a56000830186610f0c565b81810360208301526115b78185610fa0565b90506115c66040830184610f0c565b949350505050565b7f446f6e6174696f6e20646f6573206e6f74206578697374000000000000000000600082015250565b6000611604601783610f8f565b915061160f826115ce565b602082019050919050565b60006020820190508181036000830152611633816115f7565b9050919050565b7f4e487b7100000000000000000000000000000000000000000000000000000000600052603260045260246000fdfea26469706673582212203cdb7bbac3179615daae45af8de0878d7f0217c95383ad04a75eb4b413b09fbd64736f6c63430008130033",
  "linkReferences": {},
  "deployedLinkReferences": {}
}